:060000000204BD020633FC
:10000B000204291205F512061512064E1205D3121B
:07001B0005D31206B780F8BF
:10002300020549E5082418F582E43400F583E00568
:100033000822900015300703900018E475F00112B0
:1000430003E302038B2000E97F2ED2008018EF54D4
:100053000F2490D43440D4FF30040BEF24BFB41AE0
:100063000050032461FFE50960021509050CE50C46
:100073007002050B30070E900015E475F0011203B2
:10008300E3EF0203D10205AC7403D2078003E4C299
:1000930007F5089000151203FAE4F509F50BF50CC2
:1000A300E50960077F2012006980F5750AFFC20128
:1000B300C200C202C203C205C206C208120035FF53
:1000C300700D3007057F0012007AAF0CAE0B22B41F
:1000D300255FC2D5C204120035FF24D0B40A0050F4
:1000E3001A75F00A780930D50508B6FF0106C6A4CB
:1000F30026F620D5047002D20380D924CFB41A0087
:10010300EF5004C2E5D20402027BD20180C6D200C2
:1001130080C0D20280BCD2D580BAD20580B47F2001
:100123001200692002077401B5090040F11200268C
:10013300FF1200690200A3D208D20680951200269E
:10014300FB120026FA120026F94A4B7006794C7A04
:10015300037BFF20022EE509602A7E008E827583D1
:10016300001203A460060EEE650A70F0C2D5EBC060
:10017300E0EAC0E0E9C0E0EE1202C2D0E0F9D0E06C
:10018300FAD0E0FB12038BFF60AAEBC0E0EAC0E009
:10019300E9C0E0120069D0E02401F9D0E03400FAAC
:1001A300D0E0FBE50A0460DCD50AD980877BFF7ABF
:1001B3000279BED202809C791080027908C206C2FD
:1001C300088008D2D5790A8004790AC2D5E50A04E1
:1001D3007002F50AE4FAFDFEFF120026FC7B0820FC
:1001E3000113120026FD7B1030000A120026FE12B6
:1001F3000026FF7B20EC3382D592D55013C3E43025
:1002030000069FFFE49EFEE42001039DFDE49CFCA9
:10021300E4CBF8C201EC700CCFCECDCCE824F8F8D7
:1002230070F38017C3EF33FFEE33FEED33FDEC3392
:10023300FCEB33FB994002FB0FD8E9EB300105F8E7
:10024300D0E0C448B201C0E00AEC4D4E4F78207BA9
:100253000070C2EAB50A0040BCC0E01202C4D0F08C
:10026300D0E0200104C4C0E0C4B201C0F0120052C7
:10027300D0F0D5F0EB0200A312040301405301BAFE
:100283005801114C010D4201BE4F01C64401C6493C
:1002930001264301CC5501B04601B04501B04703E7
:1002A3006C5001152D01192E013C2B011D23013A20
:1002B3002003552A00D548000001343F3F3F007911
:1002C3000AA2D5200314300509B910020404B908A1
:1002D3000104A2D52006025001042002689202B54F
:1002E30009005034C0E07F203003197F30A202722E
:1002F300067205500F12031BC202C206C205C208D2
:100303007F30800F300503E9C0E012006930050338
:10031300D0E0F9D0E0B509CC3005177F30B9100C27
:100323001200697F583004077F788003B9080312ED
:1003330000693002057F2D0200697F202008F87FC5
:100343002B2006F322920280CF286E756C6C290055
:10035300D2011200263001F8C201780930D5010814
:10036300F60200D52D504349581200262403B40544
:10037300004001E49003679312005A743A12005A42
:10038300D2037509040201BABB010689828A83E09C
:10039300225002E722BBFE02E32289828A83E4938E
:1003A30022BB010CE58229F582E5833AF583E0223D
:1003B3005006E92582F8E622BBFE06E92582F8E22B
:1003C30022E58229F582E5833AF583E49322BB0192
:1003D3000689828A83F0225002F722BBFE01F322B0
:1003E300F8E0FBA3A3E0F925F0F0E58215827002A3
:1003F3001583E0FA38F022EBF0A3EAF0A3E9F02248
:10040300D083D082F8E4937012740193700DA3A388
:1004130093F8740193F5828883E47374029368609C
:10042300EFA3A3A380DFC0E0C0F0C083C082C0D02D
:1004330075D000C000C001C002C003C004C005C025
:1004430006C00790003EE004F0700690003DE00413
:10045300F0758A33758CFE90003DE0B40741A3E04C
:10046300B4D03C90001874FFF0A37406F0A374DAC0
:10047300F090003FE0FFA3E090001BCFF0A3EFF06C
:100483007B017A00790112008B7B017A00790112DA
:10049300066790003FE4F0A3F090003DF0A3F0D096
:1004A30007D006D005D004D003D002D001D000D0AD
:1004B300D0D082D083D0F0D0E032787FE4F6D8FD7C
:1004C30075812102050402000EE493A3F8E493A3CB
:1004D3004003F68001F208DFF48029E493A3F85483
:1004E30007240CC8C333C4540F4420C8834004F406
:1004F30056800146F6DFE4800B0102040810204019
:1005030080900688E47E019360BCA3FF543F30E5EE
:1005130009541FFEE493A360010ECF54C025E0608D
:10052300A840B8E493A3FAE493A3F8E493A3C8C55B
:1005330082C8CAC583CAF0A3C8C582C8CAC583CA4C
:10054300DFE9DEE780BEC0E0C0F0C083C082C0D078
:1005530075D000C000C001C002C003C004C005C004
:1005630006C007309828C298AF99EF24CF600F14C4
:10057300601114601324037015120693800D120684
:100583009C80081206A580031206AE1206C0D0078F
:10059300D006D005D004D003D002D001D000D0D0F3
:1005A300D082D083D0F0D0E032EFB40A07740D12BA
:1005B30005B7740A309811A899B8130CC2983098EB
:1005C300FDA899C298B811F63099FDC299F5992200
:1005D300308405120693801630850512069C800E22
:1005E3003086051206A580063087061206AE12066F
:1005F300C922E4900000F0C2B7C2B612067AD2B79D
:10060300D2B612067A900000E004F0E0C3940340EF
:10061300E622758E0153877F75985053890F43895E
:1006230020758BFD758DFDC2ABD28ED2AFD2AC22BD
:10063300C0E0C083C082900040E004F070069000E8
:100643003FE004F0D082D083D0E0325389F0438975
:1006530001758A33758CFEC28DD28CD2A9D2A8C201
:1006630089C2882212038BFF600C1206D2740129FF
:10067300F9E43AFA80EE22007F087E017DF3DDFE85
:10068300DEFCDFFA2242003F000042003D00000092
:10069300C280D281C283D28222D280C281D283C25B
:1006A3008222C280C281C283D28222C280D281C20C
:1006B30083C28222C280C281C283C282227F127E0F
:1006C300EBDEFEDFFC227FB47E49DEFEDFFC228F01
:1006D300993099FDC2992253504545443A256463A4
:0606E3006D2F730D0A00EB
:00000001FF
