:10000000020AC1E4F5C8F5CCF5CD220205E7538913
:10001000F0438901758A33758CFEC28DD28CD2A9CA
:10002000D2AF22020651EC4D6011E8497017ED3352
:10003000EC3304600DE4FCFFFEFD22E933E83304F9
:1000400070F802024F12021A58046009E4CC2481AD
:100050005006285009020259284003020256C0E007
:10006000EB4A7044B98006D0E0FB020245EF4E70C7
:100070001CBD8008EBFFEAFEE9FD80EBE98DF0A4F2
:10008000FEE5F002010FE9CDF9EAFEEBFFEF89F0A2
:10009000A4FCE5F0CE89F0A42EFFE435F0CD89F084
:1000A000A42DFEE435F08067EF4E7005BD80D7804B
:1000B000C3EF8BF0A4ACF0EE8BF0A42CFCE435F095
:1000C000F8EF8AF0A42CE5F038FCE433CB8DF0A4F3
:1000D0002CFCE5F03BF8EE8AF0A42CFCE5F038F8B7
:1000E000E433CF89F0A42CFCE5F038CF3400CE897E
:1000F000F0A42FFFE5F03EFEE433C98DF0A42EFE00
:10010000E5F039CD8AF0A42FFFE5F03EFEE43DFD99
:1001100033D0E0FB50070BBB000F020259EC2CFC64
:10012000EF33FFEE33FEED33FD02023174F8CC64A1
:1001300080CCC86480C8F58204604FC3EB9FF5F0A3
:10014000EA9E42F0E99D42F0E89C45F0603C501D7B
:10015000E5825FFFE582D313CB5BCBF42B5582FBAB
:1001600050280ABA002409B9002008801DE5825BE6
:10017000FBE582D313CF5FCFF4C3132F5582FF501B
:10018000090EBE00050DBD00010CC3EB9FF5F0EAA2
:100190009E42F0E99D42F0E89C45F06007CC482083
:1001A000E701B3EC2275F020800E75F01080057524
:1001B000F0087D007E007F003392D530D503120217
:1001C00093EC334010EF33FFEE33FEED33FDEC33B1
:1001D000FCD5F0ED22E5F0247EA2D513CC92E7CD3C
:1001E000CEFF22EDD2E7CD33EC3392D52481400609
:1001F000E4FFFEFDFC22FCE4CFCECDCC24E0501188
:1002000074FF80EDC3CC13CCCD13CDCE13CECF1362
:10021000CF0470F030D5DE020293E9D2E7C933E8AB
:1002200033F892D5EDD2E7CD33EC33FC5002B2D5A2
:1002300022EC30E7100FBF000C0EBE00080DBD0011
:10024000040BEB6014A2D5EB13FCED92E7FD2274D6
:10025000FFFCFDFEFF22E480F8A2D574FF13FC7DB5
:1002600080E480EFBB010689828A83E0225002E7A6
:1002700022BBFE02E32289828A83E49322C5F0F83E
:10028000A3E028F0C5F0F8E582158270021583E03E
:1002900038F022C3E49FFFE49EFEE49DFDE49CFC55
:1002A00022ECF0A3EDF0A3EEF0A3EFF022A88285FC
:1002B00083F0D083D0821202C41202C41202C4128C
:1002C00002C4E473E493A3C583C5F0C583C8C582A3
:1002D000C8F0A3C583C5F0C583C8C582C8229000F5
:1002E00012EDF0A3EBF0900011EFF025E024FE24D6
:1002F000B0FF1208F1900012E0540FFF1208F190C5
:100300000012E0FF7804A2E713D8FB2410FF1208C4
:10031000F1900013E0FF3395E0FEEF24E0FFEE34B0
:10032000FFFEEFC4F8540FC868FFEEC454F048A3B2
:10033000F0A3EFF0900013E0FF3395E0FEEFC4F878
:10034000540FC868FFEEC454F048FEEF2408FFEED7
:1003500034FEFEA3E0FCA3E0FDC39FEC9E5013120D
:100360000882900015E004F070CA900014E004F0D8
:1003700080C2900011E025E01424B0FF1208F19033
:100380000012E0540FFF1208F1900012E0FF780411
:10039000A2E713D8FB2410FF1208F1900013E0FF2E
:1003A0003395E0FEEFC4F8540FC868FFEEC454F074
:1003B00048FEEF2408FFEE34FEA3F0A3EFF0900018
:1003C00013E0FF3395E0FEEFC4F8540FC868FFEE6A
:1003D000C454F048FEEF2410FFEE34FEFEA3E0FC10
:1003E000A3E0FDC39FEC9E5013120882900015E01D
:1003F00004F070CA900014E004F080C222120B8F47
:100400001208B89000001202A1E4FFFE7D0C7C42AD
:10041000900000E0F8A3E0F9A3E0FAA3E0FB1201EA
:100420002C60084006120AF90204C1E4FFFE7D2098
:100430007C41900000E0F8A3E0F9A3E0FAA3E0FB20
:1004400012012C5005120B028077120B1D120A6B41
:10045000120AA51208B89000081202A1120A7A1214
:100460000AA5120A89120AA51208B89000041202FD
:10047000A1120A7A120AA5900004E0FCA3E0FDA3F1
:10048000E0FEA3E0FFA3E0F8A3E0F9A3E0FAA3E015
:10049000FB12012C60074005120B0B802490000812
:1004A000E0FCA3E0FDA3E0FEA3E0FF900004E0F881
:1004B000A3E0F9A3E0FAA3E0FB12012C4006120B23
:1004C00014120B2622120767900022E024F9602EF6
:1004D00014604A1460682403600302055F900021E1
:1004E000E0640660101208457BFF7A1279A8E4FDEB
:1004F0007F031207B99000217406F002091A9000D8
:1005000021E0640760101208457BFF7A1279B4E499
:10051000FD7F031207B99000217407F0229000219B
:10052000E0640860101208457BFF7A1279C4E4FD8C
:100530007F031207B99000217408F0020946900069
:1005400021E0640960101208457BFF7A1279D1E43A
:10055000FD7F031207B99000217409F01203FD22F8
:100560007FAE1208F1E4FF1208F17F101208F17F4C
:10057000401208F17FB01208F17F811208F17FFF6D
:100580001208F17FA11208F17FA61208F17FA812CC
:1005900008F17F3F1208F17FC81208F17FD31208DB
:1005A000F1E4FF1208F17FD51208F17F801208F103
:1005B0007FD81208F17F051208F17FD91208F17F68
:1005C000F11208F17FDA1208F17F121208F17FDBD5
:1005D0001208F17F301208F17F8D1208F17F14129A
:1005E00008F17FAF0208F1C0E0C083C082C0D075BF
:1005F000D000C000C004C005C006C007900020E0C5
:1006000004F0700690001FE004F0758A33758CFECC
:1006100090001DE0FEA3E0FFA3E0FCA3E0FDC39F6C
:10062000EE6480F8EC6480985004D2B38002C2B3C8
:10063000ED64284C700890001FF0A3F0D2B3D007EF
:10064000D006D005D004D000D0D0D082D083D0E066
:1006500032C0E0C0F0C083C082C0D075D000C000FE
:10066000C001C002C003C004C005C006C007309866
:1006700028C298AF99EF24CD600F14601114601355
:1006800024037015120AF9800D120B028008120B58
:100690000B8003120B14120B26D007D006D005D006
:1006A00004D003D002D001D000D0D0D082D083D0EB
:1006B000F0D0E0327FB01208F17F101208F1E4FFB1
:1006C0001208F1E490000CF090000CE0FFC394805D
:1006D0005011EF9011A893FF12088F90000CE004C6
:1006E000F080E57FB11208F17F101208F1E4FF12EB
:1006F00008F1E490000CF090000CE0FFC3948050EF
:1007000011EF90122893FF12088F90000CE004F074
:1007100080E522120B57120B2F120B88120B2F128F
:100720000B5E120B2F120B88120B2F120B65120B84
:100730002F120B88120B2F120B6C120B2F120B881F
:10074000120B2F120B73120B2F120B88120B2F127E
:100750000B7A120B2F120B88120B2F120B81120B1C
:100760002F120B88020B2F20911030920D30930A1C
:100770003094079000227406F02230911020920DE0
:1007800030930A3094079000227407F022309110C1
:1007900030920D20930A3094079000227408F022C2
:1007A00030911030920D30930A20940790002274FB
:1007B00009F022900022E0F02290000CEFF0A3ED6F
:1007C000F0A3EBF0A3EAF0A3E9F07F201208F17F99
:1007D000021208F190000EE0FBA3E0FAA3E0F91288
:1007E0000264FB601E90000CE0FFA3E0FD1202DE3D
:1007F00090000FE475F00112027D90000DE02408D6
:10080000F080D122E490000CF0A3F090000CF09066
:10081000000CE0FFC39408502B1208ED7F10120863
:10082000F1E4FF1208F1E490000DF0E4FF12088FEC
:1008300090000DE004F0E0C3948040EF90000CE0E5
:1008400004F080CB2290000C7404F090000CE0FFC8
:10085000C39406502C1208ED7F131208F1E4FF1226
:1008600008F190000D7430F0E4FF12088F90000D35
:10087000E004F0E0C3948040EF90000CE004F080CE
:10088000CA2274B82DF582740B3CF583E493FF9073
:100890000016EFF0120B49120AD97F78120A0F12D4
:1008A0000A3B7F40120A0F120A3B900016E0FF122B
:1008B0000A0F120A3B020AE4120AEF30A5FD120BDE
:1008C0004120A5FD120B9A120A971201E39000171E
:1008D000EEF0A3EFF0120A289000191202A1900086
:1008E00019E0FCA3E0FDA3E0FEA3E0FF22EF24B0AB
:1008F000FF900016EFF0120B49120AD97F78120A06
:100900000F120A3BE4FF120A0F120A3B900016E096
:10091000FF120A0F120A3B020AE430A20820B505B2
:10092000120B0B801420A20830B505120B1480099D
:1009300020A20920B506120AF9020B2630A20630C1
:10094000B503120B1D2220A30820B405120AF9805A
:100950001420A30830B405120B0B800930A3092022
:10096000B406120B14020B2630A30630B403120B8C
:100970001D221205601208041206B47BFF7A0B795F
:100980009DE4FD7F021207B97BFF7A0B79ADE4FD90
:100990007F030207B9E490000CF0C2B7C2B6120A96
:1009A000B3D2B7D2B6120AB390000CE004F0E0C3A1
:1009B000940340E622120995120B5012097212009C
:1009C0000E1200031209D5120ACD120A5C120A4C4B
:1009D0001204C580FB758E0153877F75985053892B
:1009E0000F438920758BFD758DFDC2ABD28ED2AFC2
:1009F000D2AC22E490000CF0C290120B38D29012CC
:100A00000B3890000CE004F0E0C3940340EA22C2EB
:100A1000A0E4FEEF3392A100D2A000C2A000EF2517
:100A2000E0FF0EEEB408EC22AD07AC06E41201AA1A
:100A30007B967A43798B783C020026C2A0D2A10033
:100A4000D2A000A2A1E433FF00C2A022E4900017CC
:100A5000F0A3F0A31202AD000000002290001DE4FC
:100A6000F0A37403F0E4A3F0A3F02290001DE4F0DF
:100A7000A37405F0E4A3F0A3F02290001DE4F0A31A
:100A80007403F0E4A3F0A3F02290001DE4F0A304AB
:100A9000F0E4A3F0A3F022AFCDEFFEADCCEDFFACC0
:100AA00006E40201AA007F037E1A7DDFDDFEDEFC84
:100AB000DFFA22007F087E017DF3DDFEDEFCDFFA37
:100AC00022787FE4F6D8FD7581070209B5900022EF
:100AD0007407F0E4900021F022D2A0D2A100C2A1BC
:100AE00000C2A022D2A0C2A100D2A100C2A022C2F4
:100AF000A4D2A4120B95C2A422C280D281C283D2F6
:100B00008222D280C281D283C28222C280D281C29A
:100B100083C28222C280C281C283D28222C280C2A8
:100B200081C283C282227F127EEBDEFEDFFC227F47
:100B3000487EB5DEFEDFFC227FB47E49DEFEDFFCB0
:100B400022E4F5CDF5CCD2CA22D2A000D2A1002257
:100B5000C295C296C29722D295C296C29722C295DA
:100B6000D296C29722C295C296D29722D295D29699
:100B7000C29722D295C296D29722C295D296D29788
:100B800022D295D296D29722C295C296C2972212AD
:100B900007130209F37F02DFFE22C2CA222D2D2D88
:100BA0002D2D52656164792D2D2D2D2D004D6F64F5
:100BB000656C3A20202020000000000000000000AA
:100BC0000000000000000000000000F8000000002D
:100BD000000000333000000000100C06100C06006E
:100BE000000000000000000040C07840C0784000D5
:100BF000043F04043F040400007088FC0830000037
:100C0000001820FF211E0000F008F000E01800008E
:100C100000211C031E211E0000F008887000000047
:100C20001E2123241927211010160E000000000099
:100C30000000000000000000000000E018040200B6
:100C4000000000071820400000020418E000000027
:100C50000040201807000000404080F08040400025
:100C60000202010F01020200000000F0000000007B
:100C70000101011F0101010000000000000000004F
:100C800080B07000000000000000000000000000C4
:100C9000000101010101010100000000000000004D
:100CA00000303000000000000000000080601804E8
:100CB000006018060100000000E010080810E000C5
:100CC000000F102020100F00001010F8000000008E
:100CD0000020203F202000000070080808887000D5
:100CE0000030282422213000003008888848300055
:100CF0000018202020110E000000C02010F8000075
:100D000000070424243F240000F80888880808000D
:100D10000019212020110E0000E010888818000022
:100D2000000F112020110E0000380808C8380800F4
:100D30000000003F00000000007088080888700074
:100D4000001C222121221C0000E010080810E000F5
:100D50000000312222110F00000000C0C00000007E
:100D600000000030300000000000008000000000A3
:100D7000000080600000000000008040201008009B
:100D80000001020408102000404040404040400064
:100D9000040404040404040000081020408000003F
:100DA0000020100804020100007048080808F00044
:100DB0000000003036010000C030C828E810E00014
:100DC0000718272423140B000000C038E00000009F
:100DD000203C23020227382008F888888870000009
:100DE000203F202020110E00C030080808083800DD
:100DF000071820202010080008F808080810E00054
:100E0000203F202020100F0008F88888E8081000F4
:100E1000203F20202320180008F88888E8081000C8
:100E2000203F200003000000C03008080838000000
:100E300007182020221E020008F808000008F80801
:100E4000203F210101213F20000808F80808000088
:100E50000020203F2020000000000808F8080800BB
:100E6000C08080807F00000008F888C02818080033
:100E7000203F20012638200008F80800000000006C
:100E8000203F20202020300008F8F800F8F8080063
:100E9000203F003F003F200008F830C00008F8085D
:100EA000203F200007183F00E01008080810E0006D
:100EB0000F10202020100F0008F808080808F00084
:100EC000203F210101010000E01008080810E000A7
:100ED0000F18242438504F0008F88888888870003C
:100EE000203F2000030C30200070880808083800DC
:100EF0000038202121221C00180808F808081800D2
:100F00000000203F2000000008F808000008F80852
:100F1000001F202020201F000878880000C8380803
:100F2000000007380E010000F80800F80008F8007B
:100F3000033C0700073C0300081868808068180815
:100F400020302C03032C30200838C800C838080093
:100F50000000203F2000000010080808C8380800E2
:100F60002038262120201800000000FE0202020086
:100F70000000007F40404000000C30C00000000036
:100F8000000000010638C00000020202FE0000005E
:100F9000004040407F000000000004020202040004
:100FA0000000000000000000000000000000000041
:100FB0008080808080808080000202040000000029
:100FC0000000000000000000000080808080000021
:100FD0000019242222223F2008F80080800000000F
:100FE000003F112020110E000000008080800000D2
:100FF000000E112020201100000000808088F800E1
:10100000000E112020103F20000080808080000012
:10101000001F222222221300008080F08888881876
:101020000020203F20200000000080808080800081
:10103000006B94949493600008F800808080000016
:10104000203F210000203F200080989800000000F1
:101050000020203F20200000000000809898000021
:1010600000C08080807F000008F800008080800041
:10107000203F24022D302000000808F80000000066
:101080000020203F20200000808080808080800021
:10109000203F20003F20003F8080008080800000B3
:1010A000203F210000203F20000080808080000041
:1010B000001F202020201F00808000808000000072
:1010C00080FFA12020110E000000008080808000A1
:1010D000000E112020A0FF80808080008080800092
:1010E00020203F21200001000000808080808000BF
:1010F0000033242424241900008080E08080000034
:101100000000001F20200000808000000080800080
:10111000001F202020103F208080800000808080E1
:1011200000010E3008060100808000800080808071
:101130000F300C030C300F00008080008080800096
:101140000020312E0E3120008080800000808080C1
:1011500080818E7018060100008080808080800071
:101160000021302C2221300000000000807C02028F
:1011700000000000003F404000000000FF000000B1
:1011800000000000FF0000000002027C8000000060
:101190000040403F0000000000060101020204047C
:1011A000000000000000000004244484649C4030DF
:1011B0000FC8080828180000404042CC0000FC047A
:1011C0000200FC0404FC00008060F80704E424240E
:1011D00024FF242424E404000000FE22222222FE14
:1011E00022222222FE00000000808444241C07C426
:1011F00004043C404040700000FE20203F2000FCE2
:1012000026A57C2424FC0000000000E0000000FF74
:1012100000000020408000000008884828180FE8DF
:10122000080808080808000010080601824C201869
:1012300006010618204080000040201F20404F4437
:1012400042407F42444340000000FF008081452926
:10125000112F41418181800080601F020202027FC4
:10126000020242827F000000024222120A42827F72
:1012700002020A1222420200807F0101FF00080DD3
:101280000B0909FF09090800080403000040807FDA
:101290000000000000010E0008080909090909FF03
:1012A00009090909090808004D6F64656C3A547210
:1012B00061636B004D6F64656C3A52656D6F746568
:1012C000437472004D6F64656C3A466F6C6C6F7757
:1012D000004D6F64656C3A4F627341766F696400CC
:00000001FF
